:040000006F00D0714C
:100004000000000000000000DC0B0020580B002062
:10001400A9BDF9F3902300000000000000000000D7
:100024009023000090230000000000000000000066
:100034009023000000000000902300000000000056
:100044000000000090230000000000009023000046
:1000540090230000902300001802002000000000FC
:100064001E02002000000000000000009023000099
:1000740090230000902300009023000090230000B0
:100084000000000090230000000000009023000006
:10009400411122C4371400401E2C71777D1706C607
:1000A400F98F26C24AC01EAC1945972000E0E780AC
:1000B40060D513056004EF00300591451305000871
:1000C40093040008972000E0E780C0D8232C940A0A
:1000D400971000E0E780604E972000E0E78080AF53
:1000E40031C5232C940A130540061309840BEF0031
:1000F400F02F1304C40A1305400604C0EF00102FA8
:100104001305400623209900EF00502E13054006E6
:1001140004C0EF00B02D1305400623209900EF0022
:10012400F02C1305400604C0EF00502C3714004097
:100134001E2C71777D17F98F1EAC9387419F23A0E6
:10014400F1869387419723AEF1849387418F23AC43
:10015400F184971700009387A7E523AAF1849720D9
:1001640000E0E780C0D8B7E400E0B707400023A070
:10017400F410130900089307840B23A02701130527
:100184004006EF00B0261304C40A6165232024014D
:100194001305056A972000E0E780E0D33727004085
:1001A40083472740138901833714004093E71700DE
:1001B4002301F740B707000123A0F41093040008BB
:1001C4008327090085072320F900971000E0E780C2
:1001D40080230DC5972000E0E780009B971000E086
:1001E400E780002309C583270900C18B81C79307D2
:1001F400840B19A09307C40A84C3D9B783270900C1
:10020400A18B81CB9307840B84C34145EF00101E5F
:1002140045BF9307C40ACDBF15207300203037278C
:10022400004083476740858B81CB85472303F74094
:10023400972000E0E780A0AC73002030011122CCAD
:1002440006CE26CA4AC84EC652C4378400407C2013
:1002540013F7F70F898B638A07667C301307000353
:1002640093F70703638BE7027C301307000293F7CD
:10027400F7036389E70C6367F7080947638FE71A95
:100284006366F700639007181C2421A00D4763855B
:10029400E720B78700400947F8A3378700407C333D
:1002A4009397476063D90738930720FC2301F7022B
:1002B4009386018688421389C18478317C21220780
:1002C4005D8F2310E9001C312387F184042113FA84
:1002D400040663030A2A93F604046391062493F63E
:1002E4000402638D0622FD1793F7F70FA94663E70F
:1002F400F632972600E09386A6D8B3C7D7209C434E
:10030400B6978287130720026385E7141307300228
:100314006380E71A13071002E39DE7F603C73185EC
:100324008547631DF70E8347640293C707042303BD
:10033400F4028347640293F7C70F2303F402A389EB
:1003440001842DA083C7E1841547638DE7066363A9
:10035400F70205476383E7080D47E38CE7F2B787A5
:1003640000402380070209472381E7028547A387CA
:10037400F18405B71947E394E7FE9389C18413898F
:10038400818483D4090083250900A147B3D4F40AE6
:1003940003A501862686971000E0E78080C383D7F3
:1003A4000900858F2390F90083270900A69723204D
:1003B400F90093F4F40F230094028347240293C7B3
:1003C400070409A83C3003C7C18493F70708D98FF1
:1003D4003CB089472301F4026DBD1389C184835461
:1003E4000900A1478145B3D4F40A03A501862686F2
:1003F400971000E0E78040BF83570900858F2310E2
:10040400F90045BF7C3093F70704E38407E883478A
:10041400640293C707082303F402BDB5834764024B
:1004240093C707042303F4028347640293F7C70FB7
:1004340093E727002303F40215BF7C3093F70704E6
:10044400E38907E48347A40293C707082305F4025A
:1004540025BD03C7218585476311F7028347A4029D
:1004640093C707042305F4028347A40293F7C70F35
:100474002305F40223890184D5BD8347A40293C7CD
:1004840007042305F4028347A40293F7C70F93E7F5
:1004940027002305F402D9BD7C3093F70704E38ACF
:1004A40007DE8347E40293C707082307F402E9BB86
:1004B40003C7118585476311F7028347E40293C795
:1004C40007042307F4028347E40293F7C70F2307C3
:1004D400F402A388018459BD8347E40293C7070447
:1004E4002307F4028347E40293F7C70F93E7270037
:1004F4002307F402A5BD5C3158210545A207D98F15
:1005040091C7054709456383E7001145971000E04B
:10051400E78060EE83C7719FA382F184814793943F
:10052400446063DA040003570900A147B357F70A8C
:100534001D8F2310E90093F7F70F3787004023003E
:10054400F702930700FC2301F702D5A083C7619F3C
:100554002383F184E1B783C75184238AF19E7DBF4D
:1005640083C76184DDBF214681453356C70A97108E
:1005740000E0E78060A75DB72D466361F60A1726A1
:1005840000E01306A6B2B3C7C7209C43B297828784
:100594003C3134210D46A207DD8EA183138481846E
:1005A4006384C710636CF6008546638DD702894661
:1005B400638BD708130AF00F81471DA89306100216
:1005C400638BD70893062002E396D7FE5C21CDCF38
:1005D40085466383D70C972700E09387A7B31CC095
:1005E400F14739A0972700E0938747D81CC0C94733
:1005F40063F4E7002310F900835909000C40A14774
:10060400B3D9F90A4E86971000E0E780809C1C401D
:10061400CE971CC09307F00FE312FAF0B78700409F
:100624001307F0FC2381E7028547A387F184B7878A
:1006340000400947F8A3F2406244D2444249B24917
:10064400224A05618280972700E09387E7CC1CC08B
:100654009307400571BF5C218546638DD7008946A9
:10066400638FD700A1FB972700E0938707CC1CC0BA
:10067400A547BDBF972700E09387B7CCCDBF972789
:1006840000E09387A7CDE5B7972700E0938787BC61
:100694001CC093076009A9BF972700E0938747A967
:1006A4001CC093072012A9B793F7F60F8546638CF5
:1006B400D70089466380D702E39E07EE93870182C1
:1006C4001CC0914735B7972700E0938727C41CC007
:1006D400B14739BF972700E0938747C11CC09307F0
:1006E400000239B73C212310F9000DBD83C70185F1
:1006F4001CA1035709008547E3F2E7E28547E5B704
:100704003C212388F18419BD93F7F4018946639C45
:10071400D7025C2105476381E70213071008E39FB2
:10072400E7EE378700408347670293F7C70B93E7E9
:1007340027002303F702DDB33787004083476702AE
:1007440093F73707FDB791EF3C313821A207D98FD2
:100754000547E395E7DC138741841C23F99B1CA31D
:1007640075BB8546E39CD7EA54211377F70F95C6EA
:100774006388F604B78600402386E60203C7E602D0
:10078400134707042387E60203C7E6021377C70F5C
:100794002387E602A388F18451B3B78600402382FD
:1007A400E60203C76602134707042383E60203C76E
:1007B40066021377C70F2383E602A389F184B9BBCA
:1007C400B78700402384E70203C7A702134707043F
:1007D4002385E70203C7A7021377C70F2385E70220
:1007E4002389D18425BB93F7F4010947639FE7026A
:1007F4005C315821A207D98F0547638FE70013079F
:100804001008E39DE7E0378700408347670293F7CA
:10081400C70B93E7370031BF378700408347670230
:1008240093F7370793E7C70029B7E39907DE3C310D
:100834003821A207D98F0547E392E7CE1387418475
:100844001C2393E7170021BF230005005DB513F7B0
:10085400F4018947631FF7042300050098425C33C1
:100864005023A207D18F0546638AC7029305100857
:10087400639CB700B787004083C767028D4593F731
:1008840037046393B70010A39C42A3800700035767
:1008940009008547E3F4E7C88947B1B537860040C6
:1008A40003466602B1451376C608E31FB6FC1CA3D3
:1008B400E1BF79FB2300050003C7418419C39842B3
:1008C400FDB79C4223800700C1B79377170099CFE7
:1008D4008947A30104002301F4022303F40223053E
:1008E400F4022307F40285477CA0B1B39377470051
:1008F40091CB5C3093C7470093D72748A387F184F3
:100904009147DDB778A005BB9307000C011163186C
:10091400F50493078008F3B7078093F787083EC070
:100924000F100000B7170040130770052380E70479
:10093400130780FA2380E7040F100000F8371367C9
:100944000704F8B798271367070C98A723800704B0
:100954008247F3A707800F10000005618280B71754
:100964000040B827118B69EB83C6E704130780089E
:1009740093F6F60F733607801376860832C20F108B
:1009840000001308700523800705930580FA23806F
:10099400B7040F10000003C6E7041366360023876C
:1009A400C704B02713664600B0A723800704124685
:1009B400732606800F10000090271376F60F733706
:1009C4000780137787083AC40F10000023800705B7
:1009D4002380B7040F10000098271367070C98A70B
:1009E40023800704A247F3A707800F100000A54740
:1009F4000100FD1793F7F70FE5FF93078008F3B79E
:100A0400078093F787083EC60F100000B717004011
:100A1400130770052380E704130780FA2380E70493
:100A24000F10000090A72387D70423800704B24740
:100A3400F3A707800F1000009377050C1307000439
:100A4400639DE70893078008F3B7078093F7870847
:100A54003EC80F100000B71700401307700523802D
:100A6400E704130780FA2380E7040F100000B82777
:100A7400854613670701B8A737270040A303D7802B
:100A84008346578093E60601A302D7802380070498
:100A9400C247F3A707800F10000093078008F3B73D
:100AA400078093F787083ECE0F100000B717004069
:100AB400130770052380E704130780FA2380E704F3
:100AC4000F100000F8371375F50F13670704F8B714
:100AD40088A723800704F247ADBD9377F5019DCF26
:100AE40093078008F3B7078093F787083ECA0F106F
:100AF4000000B7170040130770052380E7041307AD
:100B040080FA2380E7040F1000003727004089464D
:100B1400A303D78023800704D247A5BF9307800887
:100B2400F3B7078093F787083ECC0F100000B71780
:100B34000040130770052380E704130780FA23801D
:100B4400E7040F100000372700409D46A303D78019
:100B540023800704E24735BF4111814601468145A0
:100B64001145971000E0E780E03E13078008F33753
:100B7400078093F787083EC40F100000B7170040A2
:100B8400130670052380C704930680FA2380D704D4
:100B94000F100000FD55CEB723800704A245F3A52E
:100BA40005800F10000073370780137787083AC653
:100BB4000F1000002380C7042380D7040F10000007
:100BC40003C76704136717002383E704238007041C
:100BD400B247F3A707800F10000001A001A0E5476A
:100BE4003305F50201007D1575FD8280411122C493
:100BF40006C62A841305803E7D14D5373344040881
:100C040075F8B240224441018280230304801547D1
:100C1400A2872303E480010001002302A48003C708
:100C2400678062076187E34C07FE2382A7802287DF
:100C340083476780E207E187E3CC07FE82802303D2
:100C4400048015472303E480010001002302A480EB
:100C5400828083076480E3CE07FE230304808280BE
:100C640083076480E3CE07FE0345448082808307C4
:100C74006480E3CE07FE2302A4808280411126C44F
:100C84004AC24EC006C61377F50BAD47AA892E8912
:100C940095446306F70019455D37653F8D444E85DD
:100CA400793FFD59FD1463983401B240A2441249BE
:100CB400824941018280135509011375F50F453F9F
:100CC4002209CDB7011126CC06CEB704080051374E
:100CD4001545B537713769372AC6A53F324593772D
:100CE400150089EB136515001375F50FF240E24406
:100CF40005618280FD14E9FC0145CDBF411106C6A2
:100D0400B7170040130770052380E704130780FA20
:100D14002380E70403C747041305F00F1367070E86
:100D24002382E70491472303F480C535B24041018F
:100D34000DB7011126CC4ACA4EC852C606CE2A891E
:100D4400AE89B284554A5D3F91E82137F240268549
:100D54005249E244C249324A05618280CA85094542
:100D6400313F910903A7C9FF91472320E48003077A
:100D74006480E34E07FE23034481FD17EDFBFD145D
:100D8400110981C49377F90FE9FF2D3F55FDFD54F7
:100D940075BF011126CC4ACA4EC852C656C45AC29F
:100DA40006CE2A89328A8D49913FC164C16A056B96
:100DB4009387F4FFB3F7270199E363719A02FD194E
:100DC4009180E39709FE71350145F240E2445249AE
:100DD400C249324AA24A124B056182801305800D32
:100DE4006388540113050002638464011305100829
:100DF400CA856935C13D09C52699330A9A4075BF2C
:100E04007D55E1B7011106CE26CC4ACAB2844EC83C
:100E14002AC62E89E5353245FD14FD59AA852D458E
:100E2400B13D639A34013535F24026855249E24496
:100E3400C249056182802D3593F7340091EB8326F6
:100E440004800327090093074900E39EE6FC3E89DA
:100E5400FD14C1BF011106CE2AC64D353245C53336
:100E6400F2400561FDB3011106CE26CC4ACA4EC834
:100E740052C6AA8956C42E895135CE852D45FD3BCF
:100E840081448D4A214AE93B6396540183270480B7
:100E94002320F9008504E39844FF832704801397F3
:100EA4002901635C07002312F900F240E24452492D
:100EB400C249324AA24A056169BB2322F900F5B747
:100EC400411106C626C44AC24EC0AE89053D8145BD
:100ED4001305B0046533BD447D59593393F7740049
:100EE400CE9703C70700FD14398D2380A700E3962E
:100EF40024FFB240A24412498249410199BB4111E5
:100F040006C6ED3B130560061D3BA133130590098E
:080F14003D33B240410135BB41
:100F1C00971100209381C181172100201301C10D6D
:100F2C001305400097F5FF1F9385050D170600204C
:100F3C00130606FE63FAC5008322050023A05500A4
:100F4C0011059105E3EAC5FE1715000013050544CC
:100F5C00970500209385C5FB1386418263FAC50073
:100F6C008322050023A0550011059105E3EAC5FE77
:100F7C0013854182938541AB6377B500232005002F
:100F8C001105E36DB5FE93025002739002BC8D42C5
:100F9C00739042808542739012BC930280087390C8
:100FAC00023097F2FF1F9382220593E23200739076
:100FBC00523097F2FF1F9382220D739012347300FC
:100FCC0020302A8309CA83830500230073007D1611
:100FDC00050385056DFA82802A8311C62300B300B0
:100FEC007D16050365FE828083C7D18299CB1707D6
:100FFC000020130767F4144358439387818194C3EB
:10100C00D8C383C7C18299CB17070020130747F2B7
:10101C00144358439387018194C3D8C382809707A4
:10102C0000209387E7F009E5970700209387C7F026
:10103C0090339306F00701476307D600130700F8B7
:10104C0098B313070008B8A3B8B3D8A33D47D8B3D7
:10105C00239307008280411122C426C206C62A8827
:10106C002E84970400209384A4EC89E59704002037
:10107C00938484EC83476800F8303D8F9376170097
:10108C0095C6858B114791C3054723A4E18213852F
:10109C0014001D46C28521E42D3785479CA0A386EC
:1010AC00F182B240224492444101828093764700FF
:1010BC0091C6918B1147F1DB0947C1BF937687002D
:1010CC0091C6A18B13B717000D07C1B793762700F4
:1010DC000147C5DE898B13B7170015077DB7D535CA
:1010EC000504854780A02386F18265BF8D471CA12E
:1010FC009387F5FFA300050023010500A30105005C
:10110C0093F7F70F05476364F7002E9510A111456F
:10111C008280411122C426C24AC0894706C61CA13E
:10112C00AE842A843289814521460505753593871D
:10113C00F4FF93F7F70F19476365F7002694230024
:10114C002401B24022449244024925454101828047
:10115C00411106C6138781817C235433394692078B
:10116C00918293F70703D58F1CA17C2381451D0524
:10117C009183B18B230DF5FE5C33BD8BA30DF5FE76
:10118C00930700F8230EF5FEA30EF5FE230FF5FED4
:10119C00A30FF5FE9135B2405545410182804111B6
:1011AC0006C685471CA1138701817C23543339461D
:1011BC009207918293F70703D58F1CB17C2381454D
:1011CC0021059183B18B230DF5FE5C33BD8BA30DF3
:1011DC00F5FE930700F8230EF5FEA30EF5FE230F84
:1011EC00F5FEA30FF5FECD3BB2405945410182807F
:1011FC00411106C603A78182954663E4E60497165F
:10120C0000009386E6EC3347D7201843AA8736971D
:10121C0002877137B24023A401824101828041468A
:10122C00894519A0114685453E85C935E5B7214646
:10123C00C5BF01468145CDBF130680028D45D13D0A
:10124C00D1BF01468145E5BF41111306000281451E
:10125C0006C622C42A844933E12201E93C2093E7E3
:10126C0017003CA0930740065CA0E12201E93C205A
:10127C0093E727003CA0930740067CB0B240224481
:10128C001305000241018280411122C493F725000D
:10129C0006C626C24AC085892A84E1E1ADE79307D8
:1012AC00100B938681811CA0A3000400F8329317C5
:1012BC00170013162700118AA18B0983D18F098B74
:1012CC00D98F3CA0FC328E07C18B3CB0D832F022B7
:1012DC001183937506FC2D8B12064D8F418A518F0D
:1012EC0058B0F8221357274878A0D8329D463D8B2A
:1012FC0063E3E60297160000938606DF3347D72098
:10130C001843369702879307200B9386018161BFA0
:10131C0093E747003CB065468145130574006D3971
:10132C00B2402244924402491305000241018280DA
:10133C0093E76700C5B793E72700E9BF93E7A700DA
:10134C00D1BF93E78700F9B793E79700E1B793E72D
:10135C001700C9B793E7570075BF8DEB9307100AB9
:10136C0013895182938481811CA07D46814513058C
:10137C0014009D3198309307F0076310F702BC20DE
:10138C003CB0BC305CB0DC207CB059BF9307200A69
:10139C001389418293840181C1BFF8209307F00D1A
:1013AC00218B19CB834709001397476063520702BF
:1013BC009387070793F7F70F2300F9007CB0938707
:1013CC0017025CB083470900938717023CB089BFB2
:1013DC00938707F9C5B7010082809707002083C760
:1013EC0087B47D8D828097070020938767B2F82B96
:1013FC00598DE8AB828003A5C1831335150082801B
:10140C00970700209387C7B0B62F1307700C0145C0
:10141C006377D700CA2F1335850C134515008280CE
:10142C0017050020035565B01335850C13451500C1
:10143C00828017050020035565AF1335850C1345C5
:10144C001500828018291C399306E003B98F93F795
:10145C00F7031387670263F6E600138777FE1377AB
:10146C00F70FB50735073CA938B982803E2D4111DD
:10147C0022C406C61307700C2A84636CF700850718
:10148C00B3C707081307800C3EAD6394E700014512
:10149C0079365E2C1307700C636CF7008507B3C7A5
:1014AC0007081307800C5EAC6394E7000545853E86
:1014BC001E2C130730066364F70085071EAC18203A
:1014CC008546934717001CA03C206308D70089462B
:1014DC006392D70205E35A2C2DA01830850793F799
:1014EC00F70F1347170018B03CA009476378F700B3
:1014FC00230104001C3085C33C3809A8E39CE7FE9B
:10150C003A2C9307700CE3F7E7FEA147B2405EA8B4
:10151C002244410182803C28D5BF122D411122C4A6
:10152C0006C626C29307300614212A841307E00846
:10153C0063FEC7003C31A5E2858B89EB30208947DF
:10154C001307E0086314F6001307600C5C40558F1A
:10155C0098A318205C4029E7582498B35C40583471
:10156C00B8A35C4018289545B8B35C401838D8A38C
:10157C0044402685EF001006C8B054407C28D83271
:10158C00B337F0008607719BD98FDCB2B24022448E
:10159C009244410182808D8B0546E399C7FA79BF4D
:1015AC00782498B35C40783465BF17050020130588
:1015BC00259649BD411122C4371400401307040A73
:1015CC001C4306C626C24AC093E747001CC31149F8
:1015DC009307840B23A02701A14484C31304C40ADA
:1015EC00DD3B23202401C53B04C02244B24092447D
:1015FC0002494101CDB3011106CE22CC26CA4AC8FC
:10160C004EC63714004021492326240B9144E13364
:10161C001304840B232A94FE7D3B23202401653B79
:10162C00F24004C06244D2444249B249056182800E
:10163C000111B717004022CCA14606CE26CA4AC8D3
:10164C004EC61387C70A14C32A849316456063DFFA
:10165C0006129387870B114798C3B7140040A14912
:10166C009D3B23AC340B853B1389840B9384C40AB8
:10167C0023A0340193770404638D07109147232032
:10168C00F900B7140040A149B93323AC340BA13392
:10169C001389840B9384C40A23A034019377040226
:1016AC00638C070E91472320F900B7140040A14921
:1016BC001D3323AC340B05331389840B9384C40A78
:1016CC0023A0340193770401638B070C91472320EB
:1016DC00F900B7140040A149FD3923AC340BE539AE
:1016EC001389840B9384C40A23A034019377840058
:1016FC00D5CB91472320F900B7140040A149E1391B
:10170C0023AC340BC9391389840B9384C40A23A0EA
:10171C00340193774400D1CB91472320F900B714BF
:10172C000040A1494D3923AC340B75311389840B1E
:10173C009384C40A23A0340193772400B5CB91473A
:10174C002320F900B7140040A14971311389840B8F
:10175C0023AC340B9384C40ABD39058823A034010F
:10176C00914731C82320F900BD313714004093074D
:10177C00840BA14484C385311304C40A04C0F24011
:10178C006244D2444249B2490561828091471CC3EC
:10179C00E9B591479CC0F5B591479CC039B79147C5
:1017AC009CC005BF91479CC081BF91479CC085BF21
:1017BC0091479CC041BF9CC045BF7971B717004091
:1017CC0022D426D24AD04ECE52CC1387870B06D6C3
:1017DC00914614C39387070A9843B71400402144D9
:1017EC006D9B98C301451389C40AA149214A06057A
:1017FC001375F50F2AC623204901F13E9387840BFC
:10180C0023A03701C93E9387440A9C433245918BF0
:10181C0099C3136515007D141374F40F69F8B71789
:10182C0000401387C70AA14614C39387070A98433D
:10183C00B25022541367470098C392540259F2498C
:10184C00624A45618280411106C622C426C24AC042
:10185C003714004049369304C40A91479CC021496F
:10186C001304840B8D3E23202401B536B240224450
:10187C0023A024019244024941018280411106C6F1
:10188C0022C426C24AC0813E371400409147232C03
:10189C00F40AA1448936232C940A353E1304C40A55
:1018AC0004C0B24022449244024941018280011199
:1018BC0006CE22CC2AC62E84F5393245953B6137AB
:1018CC0013558400B53341371375F40F9533A53F89
:1018DC006244F240056105B3011106CE22CC2A8484
:1018EC00D13913650408A933B93FC13D13148500E0
:1018FC00993FE13533440408418D334505082AC628
:10190C00B53FD539F2406244324505618280011100
:10191C0006CE22CC26CA2E84B2842AC66139324520
:10192C00013B153726852933A294313F6317940068
:10193C006244F240D24405617DB908200504CD39DA
:10194C001937EDB7411106C622C426C24AC0B2846B
:10195C002E892A84853113650408D939ED35B13DBA
:10196C00630C9500213F41390144B2402285224449
:10197C0092440249410182809307F0032A848144F6
:10198C00E3E4A7FE93F7F40F63E58700C53DA531AB
:10199C00E9BF553D1D35B307990088A38504DDB714
:1019AC00411126C2B71400409387C40A06C622C44C
:1019BC00214798C31305200397F0FF1FE780A02150
:1019CC009387840B114798C31384040A1C40130596
:1019DC0020039384440AED9B1CC097F0FF1FE78003
:1019EC00801F9C40918B99CB1C40054593E7470089
:1019FC001CC0B24022449244410182801C400145EB
:101A0C0093E747001CC0F5B7411122C406C62A84CF
:101A1C00413F19E50147B24022443A854101828099
:101A2C0013050003553D13155560E34505FE0C44A5
:101A3C00354613052003393771DD0844B145592E5D
:101A4C001C441307F00FD427E397A6FCB0331428DB
:101A5C00E313D6FCD0231438E31FD6FA10209423BA
:101A6C001367260DE398E6FA3830943321E61376A3
:101A7C00170015E270246316D600AC237034638A09
:101A8C00C50054A4BC2313671700231D04005CB4C9
:101A9C0038B0054749B758246306D700B4235834E7
:101AAC00E399E6FE231D0400814513855700EFF0F2
:101ABC008FDAC5B71376270005E250246316D600DB
:101ACC00AC235034E387C5FC74A4BC2313672700F4
:101ADC00231E04007CB46DBF78246306D700B423A6
:101AEC007834E398E6FA231E040085457DBF011186
:101AFC0022CC26CA2A84AE84AA851D4506CE32C6BF
:101B0C007D33A16593850508130540034D339D6511
:101B1C00938505C52145613B3246A68513052003F7
:101B2C00FD33936504101D4559330565130585BBBD
:101B3C0097F0FF1FE780200AA2856244F240D2444E
:101B4C001D450561ADB3411122C4AA852A841D45EA
:101B5C0006C6B13BA1659385050813054003813B7F
:101B6C009D65938505C521459933936504082244E9
:101B7C00B2401D45410125BB411117F5FF1F13054F
:101B8C00253906C622C4EFF07F8E17F5FF1F13050B
:101B9C002538EFF09F9817F4FF1F130464374A2879
:101BAC00194693854183A1374A28713F0D6513056A
:101BBC00C58397F0FF1FE780000222852244B240C4
:101BCC00410199B5B71700401387070A144379717F
:101BDC0022D426D24AD04ECE52CC56CA5AC85EC651
:101BEC0006D693E6860014C314439387070BB1649F
:101BFC0093E6460014C398431D69094413674700D4
:101C0C0098C3938AE4FF138BD4FF938BF4FF054A9C
:101C1C00930909FED685130580035139794597F050
:101C2C00FF1FE78020FCDA851305800349317945D5
:101C3C0097F0FF1FE78000FBDE85130580038539D5
:101C4C00794597F0FF1FE780E0F901457131630E8C
:101C5C0044090544E31035FD156A93051A780545CA
:101C6C00B9319169938509AE694591312164930528
:101C7C0004B325452D3993050A8013050002053957
:101C8C00938564ED130540021D31A565938595E898
:101C9C001305700229399385194013058002013907
:101CAC00AD65130590022131930509C5214501311C
:101CBC0085651305C002E53E930520551305D0023A
:101CCC00FD369305040813054003D536014405453C
:101CDC00B25023AE8182225492540259F249624A84
:101CEC00D24A424BB24B456182800145D5B7411176
:101CFC00054506C622C426C2EFF02FEE0DC913848B
:101D0C0031851C208DE7EFF02FAE03A5C18513059F
:101D1C000504EFF0EFC3B78700402382A70203C787
:101D2C0067021377C70F2383E70285471CA0094579
:101D3C00EFF0AFEA0DC9138421851C208DE7EFF07D
:101D4C00AFAA03A5818513050504EFF06FCAB78709
:101D5C0000402384A70203C7A7021377C70F23856C
:101D6C00E70285471CA01145EFF02FE721C99384AA
:101D7C0011859C20A1E7EFF02FA7138401840C4060
:101D8C00938741858843A1E113050504EFF0CFCB80
:101D9C00B78700402386A702378700408347E702B6
:101DAC0093F7C70F2307F7021C401307F03F850773
:101DBC006373F70081471CC085479CA0B240224446
:101DCC0092444101828093F5F50F13050504EFF061
:101DDC00AFCB7DBFAA86014701459377F70F63E32D
:101DEC00B7008280B387E6009C230507AA9713F5FA
:101DFC00F70FE5B7371700408347E7041205411189
:101E0C00BD8BC98F93F7F70F93068008F3B6068046
:101E1C0093F6860836C60F10000093067005230053
:101E2C00D704930680FA2300D7040F100000230771
:101E3C00F70423000704B247F3A707800F10000034
:101E4C0041018280914763ECB704970700009387A8
:101E5C006752B3C5F52098413E97B717004093875A
:101E6C00470B0287944337170040B3F6A64094C340
:101E7C009306070B9C42B3F7A74019A89443371756
:101E8C000040B3F6A64094C39306070B9C42C98F3F
:101E9C009CC29307070A98433377A74098C3828064
:101EAC00944337170040C98ED9B798433377A7406E
:101EBC0098C3B71700409387070A9843498FF9BF17
:101ECC009843498FF5B7B72700401387C74008C31D
:101EDC0009472380E74011472380E7408280B7877A
:101EEC000040238007001307C0FCD8A7D8B703D73E
:101EFC0001869AAB03D7C185DAAB03D781859AAF3C
:101F0C0003D74185DAAF89462381D702494723831A
:101F1C00E7022385E7022387E7022389D702A381FF
:101F2C0007001307900298A3B71600409A2E0D666F
:101F3C00518F9AAE7D57F8A3130710F898B31D472D
:101F4C00B8A3828001112A8706CE2E8526CCB285B5
:101F5C004ACA368622C637240040B7E700E0FD5651
:101F6C0003A90700C44323A0D71823A2D7189307AB
:101F7C00F7FF93F7F70F0948636AF808B7170040A3
:101F8C0083C75704B7C80300F95763741505B30624
:101F9C00C50063E0D80463140705098297F0FF1F9E
:101FAC00E780A0D8AA873717004093067005230056
:101FBC00D704930680FA2300D70483464704C18ACA
:101FCC002302D70437E700E02320271123229710A0
:101FDC003244F240E24452493E8505618280854795
:101FEC00631FF7008567FD173E96E98F3E96FD77D8
:101FFC007D8E7D8D97F0FF1FE78020D965B797F018
:10200C00FF1FE780A0DF9307150071BFB547631A68
:10201C00F7001305900B97F0FF1FE78020E3814733
:10202C0059B7B1476315F7001305B00AEDB79947D7
:10203C006317F70097F0FF1FE78060E2CDB79D476D
:10204C00631BF70023A0050023A2050097F0FF1FD8
:10205C00E78080E6E9B791476317F70097F0FF1F19
:10206C00E78060E96DBF81471DDFF1572DBF000090
:10207C00EAE4FF1FDAE4FF1FE4E4FF1FA0E5FF1F03
:10208C00A0E5FF1FA0E5FF1FA0E5FF1FA0E5FF1FB8
:10209C00A0E4FF1F7AE4FF1FD0E4FF1FA6E7FF1F99
:1020AC0060E6FF1F74E5FF1F3EE7FF1F74E5FF1F8F
:1020BC003CE6FF1FE8E4FF1F74E5FF1F44E6FF1F2B
:1020CC0058E6FF1FA0E7FF1F74E4FF1F46F1FFFF58
:1020DC0052F1FFFF58F1FFFF62F1FFFF66F1FFFFC6
:1020EC006CF1FFFF2CF2FFFF4CF2FFFF52F2FFFFEF
:1020FC0058F2FFFF5EF2FFFF64F2FFFF6AF2FFFF90
:10210C0070F2FFFF05000904A1019520750826FF58
:10211C00001500090081020900950875089102C09C
:10212C0005010905A10185011500250135004501B1
:10213C007501950F05091901290F8102950181017E
:10214C0005012507463B0175049501651409398184
:10215C004265009501810126FF0046FF0009300908
:10216C0031093209357508950481020502150026DE
:10217C00FF0009C509C49502750881020600FF26F7
:10218C00FF0346FF03092009210922092309240919
:10219C002575109506810205080943150026FF00D8
:1021AC00350046FF0075089501918209449182091A
:1021BC0045918209469182C005010906A10185025B
:1021CC0075019508050719E029E71500250181021D
:1021DC0095017508810395057501050819012905F7
:1021EC00910295017503910395067508150026FF5C
:1021FC00000507190029FF8100C0050C0901A10188
:10220C0085031500250109E909EA094009CD19B52D
:10221C0029B87501950881020A8A010A21020A2A45
:10222C00021A23022A270281020A83010A96010A52
:10223C0092010A9E010A94010A060209B209B481AC
:10224C0002C0000005010905A1011500250135009A
:10225C0045017501950F05091901290F8102950199
:10226C00810105012507463B01750495016514099B
:10227C0039814265009501810126FF0046FF000966
:10228C0030093109320935750895048102050215AA
:10229C000026FF0009C509C49502750881020600D5
:1022AC00FF26FF0346FF0309200921092209230900
:1022BC002409257510950681020508094315002689
:1022CC00FF00350046FF0075089501B1820944B145
:1022DC00820945B1820946B182C000002003470043
:1022EC0061006D006500200043006F006E007400FB
:1022FC0072006F006C006C00650072000C035300E0
:10230C00750062006F00720009025400030100A006
:10231C00A0090400000103000000092110010001C4
:10232C002296000705810320000A0904010001031D
:10233C00000000092110010001222201070582037F
:10234C0020000A0904020001030000000921110108
:10235C000001221C00070583033000041201100148
:10236C000000000863256205000101020001000065
:10237C00F4FAFFFF0CFBFFFF30FBFFFF3AFBFFFF04
:04238C0050FBFFFF04
:0223900001A0AA
:10239400000000006C0F00209C0F002000000000D3
:1023A40001020000000000000000C800C800000096
:1023B40002808080800F000001808080800F0000F8
:1023C40002808080800F000001808080800F0000E8
:0423D40004030904F1
:00000001FF
